{
  "contractName": "Factory",
  "abi": [
    {
      "anonymous": false,
      "inputs": [
        {
          "indexed": true,
          "internalType": "contract Fundraiser",
          "name": "fundraiser",
          "type": "address"
        },
        {
          "indexed": true,
          "internalType": "address",
          "name": "owner",
          "type": "address"
        }
      ],
      "name": "FundraiserCreated",
      "type": "event"
    },
    {
      "inputs": [],
      "name": "fundraisersCount",
      "outputs": [
        {
          "internalType": "uint256",
          "name": "",
          "type": "uint256"
        }
      ],
      "stateMutability": "view",
      "type": "function",
      "constant": true
    },
    {
      "inputs": [
        {
          "internalType": "string",
          "name": "name",
          "type": "string"
        },
        {
          "internalType": "string",
          "name": "description",
          "type": "string"
        },
        {
          "internalType": "string",
          "name": "url",
          "type": "string"
        },
        {
          "internalType": "string",
          "name": "imageURL",
          "type": "string"
        },
        {
          "internalType": "address payable",
          "name": "beneficiary",
          "type": "address"
        }
      ],
      "name": "createFundraiser",
      "outputs": [],
      "stateMutability": "nonpayable",
      "type": "function"
    },
    {
      "inputs": [
        {
          "internalType": "uint256",
          "name": "limit",
          "type": "uint256"
        },
        {
          "internalType": "uint256",
          "name": "offset",
          "type": "uint256"
        }
      ],
      "name": "fundraisers",
      "outputs": [
        {
          "internalType": "contract Fundraiser[]",
          "name": "coll",
          "type": "address[]"
        }
      ],
      "stateMutability": "view",
      "type": "function",
      "constant": true
    }
  ],
  "bytecode": "0x608060405234801561001057600080fd5b50612897806100206000396000f3fe60806040523480156200001157600080fd5b5060043610620000465760003560e01c806311d752ad146200004b578063704914f8146200006b5780639d3b435514620000a1575b600080fd5b620000696004803603810190620000639190620004a1565b620000c3565b005b62000089600480360381019062000083919062000587565b620001cf565b60405162000098919062000713565b60405180910390f35b620000ab620003e7565b604051620000ba9190620007e2565b60405180910390f35b6000858585858533604051620000d990620003f3565b620000ea9695949392919062000737565b604051809103906000f08015801562000107573d6000803e3d6000fd5b5090506000819080600181540180825580915050600190039060005260206000200160009091909190916101000a81548173ffffffffffffffffffffffffffffffffffffffff021916908373ffffffffffffffffffffffffffffffffffffffff1602179055503373ffffffffffffffffffffffffffffffffffffffff168173ffffffffffffffffffffffffffffffffffffffff167fa2398daac0c8053a1e3c0280916c2ec6bc884f0959c27e639a4db829b7eabfb160405160405180910390a3505050505050565b6060620001db620003e7565b82111562000220576040517f08c379a00000000000000000000000000000000000000000000000000000000081526004016200021790620007c0565b60405180910390fd5b6000826200022d620003e7565b62000239919062000918565b90508381106200024a57836200024c565b805b9050601481106200025f57601462000261565b805b90508067ffffffffffffffff811115620002a4577f4e487b7100000000000000000000000000000000000000000000000000000000600052604160045260246000fd5b604051908082528060200260200182016040528015620002d35781602001602082028036833780820191505090505b50915060005b81811015620003df5760008185620002f29190620008bb565b815481106200032a577f4e487b7100000000000000000000000000000000000000000000000000000000600052603260045260246000fd5b9060005260206000200160009054906101000a900473ffffffffffffffffffffffffffffffffffffffff168382815181106200038f577f4e487b7100000000000000000000000000000000000000000000000000000000600052603260045260246000fd5b602002602001019073ffffffffffffffffffffffffffffffffffffffff16908173ffffffffffffffffffffffffffffffffffffffff16815250508080620003d69062000a12565b915050620002d9565b505092915050565b60008080549050905090565b611d5e8062000b0483390190565b600062000418620004128462000833565b620007ff565b9050828152602081018484840111156200043157600080fd5b6200043e848285620009cd565b509392505050565b600081359050620004578162000acf565b92915050565b600082601f8301126200046f57600080fd5b81356200048184826020860162000401565b91505092915050565b6000813590506200049b8162000ae9565b92915050565b600080600080600060a08688031215620004ba57600080fd5b600086013567ffffffffffffffff811115620004d557600080fd5b620004e3888289016200045d565b955050602086013567ffffffffffffffff8111156200050157600080fd5b6200050f888289016200045d565b945050604086013567ffffffffffffffff8111156200052d57600080fd5b6200053b888289016200045d565b935050606086013567ffffffffffffffff8111156200055957600080fd5b62000567888289016200045d565b92505060806200057a8882890162000446565b9150509295509295909350565b600080604083850312156200059b57600080fd5b6000620005ab858286016200048a565b9250506020620005be858286016200048a565b9150509250929050565b6000620005d683836200066e565b60208301905092915050565b620005ed8162000967565b82525050565b620005fe8162000953565b82525050565b6000620006118262000876565b6200061d818562000899565b93506200062a8362000866565b8060005b8381101562000661578151620006458882620005c8565b975062000652836200088c565b9250506001810190506200062e565b5085935050505092915050565b6200067981620009a5565b82525050565b60006200068c8262000881565b620006988185620008aa565b9350620006aa818560208601620009dc565b620006b58162000abe565b840191505092915050565b6000620006cf601483620008aa565b91507f6f6666736574206f7574206f6620626f756e64730000000000000000000000006000830152602082019050919050565b6200070d816200099b565b82525050565b600060208201905081810360008301526200072f818462000604565b905092915050565b600060c08201905081810360008301526200075381896200067f565b905081810360208301526200076981886200067f565b905081810360408301526200077f81876200067f565b905081810360608301526200079581866200067f565b9050620007a66080830185620005e2565b620007b560a0830184620005f3565b979650505050505050565b60006020820190508181036000830152620007db81620006c0565b9050919050565b6000602082019050620007f9600083018462000702565b92915050565b6000604051905081810181811067ffffffffffffffff8211171562000829576200082862000a8f565b5b8060405250919050565b600067ffffffffffffffff82111562000851576200085062000a8f565b5b601f19601f8301169050602081019050919050565b6000819050602082019050919050565b600081519050919050565b600081519050919050565b6000602082019050919050565b600082825260208201905092915050565b600082825260208201905092915050565b6000620008c8826200099b565b9150620008d5836200099b565b9250827fffffffffffffffffffffffffffffffffffffffffffffffffffffffffffffffff038211156200090d576200090c62000a60565b5b828201905092915050565b600062000925826200099b565b915062000932836200099b565b92508282101562000948576200094762000a60565b5b828203905092915050565b600062000960826200097b565b9050919050565b600062000974826200097b565b9050919050565b600073ffffffffffffffffffffffffffffffffffffffff82169050919050565b6000819050919050565b6000620009b282620009b9565b9050919050565b6000620009c6826200097b565b9050919050565b82818337600083830152505050565b60005b83811015620009fc578082015181840152602081019050620009df565b8381111562000a0c576000848401525b50505050565b600062000a1f826200099b565b91507fffffffffffffffffffffffffffffffffffffffffffffffffffffffffffffffff82141562000a555762000a5462000a60565b5b600182019050919050565b7f4e487b7100000000000000000000000000000000000000000000000000000000600052601160045260246000fd5b7f4e487b7100000000000000000000000000000000000000000000000000000000600052604160045260246000fd5b6000601f19601f8301169050919050565b62000ada8162000967565b811462000ae657600080fd5b50565b62000af4816200099b565b811462000b0057600080fd5b5056fe60806040523480156200001157600080fd5b5060405162001d5e38038062001d5e833981810160405281019062000037919062000335565b620000576200004b6200011960201b60201c565b6200012160201b60201c565b85600290805190602001906200006f929190620001e5565b50846003908051906020019062000088929190620001e5565b508360049080519060200190620000a1929190620001e5565b508260059080519060200190620000ba929190620001e5565b5081600660006101000a81548173ffffffffffffffffffffffffffffffffffffffff021916908373ffffffffffffffffffffffffffffffffffffffff1602179055506200010d816200012160201b60201c565b505050505050620005dc565b600033905090565b60008060009054906101000a900473ffffffffffffffffffffffffffffffffffffffff169050816000806101000a81548173ffffffffffffffffffffffffffffffffffffffff021916908373ffffffffffffffffffffffffffffffffffffffff1602179055508173ffffffffffffffffffffffffffffffffffffffff168173ffffffffffffffffffffffffffffffffffffffff167f8be0079c531659141344cd1fd0a4f28419497f9722a3daafe3b4186f6b6457e060405160405180910390a35050565b828054620001f39062000514565b90600052602060002090601f01602090048101928262000217576000855562000263565b82601f106200023257805160ff191683800117855562000263565b8280016001018555821562000263579182015b828111156200026257825182559160200191906001019062000245565b5b50905062000272919062000276565b5090565b5b808211156200029157600081600090555060010162000277565b5090565b6000620002ac620002a68462000463565b6200042f565b905082815260208101848484011115620002c557600080fd5b620002d2848285620004de565b509392505050565b600081519050620002eb81620005a8565b92915050565b6000815190506200030281620005c2565b92915050565b600082601f8301126200031a57600080fd5b81516200032c84826020860162000295565b91505092915050565b60008060008060008060c087890312156200034f57600080fd5b600087015167ffffffffffffffff8111156200036a57600080fd5b6200037889828a0162000308565b965050602087015167ffffffffffffffff8111156200039657600080fd5b620003a489828a0162000308565b955050604087015167ffffffffffffffff811115620003c257600080fd5b620003d089828a0162000308565b945050606087015167ffffffffffffffff811115620003ee57600080fd5b620003fc89828a0162000308565b93505060806200040f89828a01620002f1565b92505060a06200042289828a01620002da565b9150509295509295509295565b6000604051905081810181811067ffffffffffffffff8211171562000459576200045862000579565b5b8060405250919050565b600067ffffffffffffffff82111562000481576200048062000579565b5b601f19601f8301169050602081019050919050565b6000620004a382620004be565b9050919050565b6000620004b782620004be565b9050919050565b600073ffffffffffffffffffffffffffffffffffffffff82169050919050565b60005b83811015620004fe578082015181840152602081019050620004e1565b838111156200050e576000848401525b50505050565b600060028204905060018216806200052d57607f821691505b602082108114156200054457620005436200054a565b5b50919050565b7f4e487b7100000000000000000000000000000000000000000000000000000000600052602260045260246000fd5b7f4e487b7100000000000000000000000000000000000000000000000000000000600052604160045260246000fd5b620005b38162000496565b8114620005bf57600080fd5b50565b620005cd81620004aa565b8114620005d957600080fd5b50565b61177280620005ec6000396000f3fe6080604052600436106100f75760003560e01c80636049a45d1161008a578063b90497e011610059578063b90497e01461033f578063de2ed8931461036a578063ed88c68e14610395578063f2fde38b1461039f57610131565b80636049a45d146102a9578063715018a6146102d25780637284e416146102e95780638da5cb5b1461031457610131565b80631f522595116100c65780631f5225951461021157806338af3eed1461023c5780633ccfd60b146102675780635600f04f1461027e57610131565b80630180b97c1461016657806306fdde03146101915780631a57f7b4146101bc5780631c31f710146101e857610131565b3661013157610111346007546103c890919063ffffffff16565b6007819055506008600081548092919061012a90611656565b9190505550005b610146346007546103c890919063ffffffff16565b6007819055506008600081548092919061015f90611656565b9190505550005b34801561017257600080fd5b5061017b6103de565b60405161018891906114c8565b60405180910390f35b34801561019d57600080fd5b506101a6610428565b6040516101b39190611405565b60405180910390f35b3480156101c857600080fd5b506101d16104b6565b6040516101df9291906113ce565b60405180910390f35b3480156101f457600080fd5b5061020f600480360381019061020a9190611089565b6106e9565b005b34801561021d57600080fd5b506102266107a9565b60405161023391906114c8565b60405180910390f35b34801561024857600080fd5b506102516107af565b60405161025e91906113b3565b60405180910390f35b34801561027357600080fd5b5061027c6107d5565b005b34801561028a57600080fd5b506102936108f9565b6040516102a09190611405565b60405180910390f35b3480156102b557600080fd5b506102d060048036038101906102cb91906110b2565b610987565b005b3480156102de57600080fd5b506102e7610a96565b005b3480156102f557600080fd5b506102fe610b1e565b60405161030b9190611405565b60405180910390f35b34801561032057600080fd5b50610329610bac565b6040516103369190611398565b60405180910390f35b34801561034b57600080fd5b50610354610bd5565b6040516103619190611405565b60405180910390f35b34801561037657600080fd5b5061037f610c63565b60405161038c91906114c8565b60405180910390f35b61039d610c69565b005b3480156103ab57600080fd5b506103c660048036038101906103c19190611060565b610d85565b005b600081836103d6919061154d565b905092915050565b6000600160003373ffffffffffffffffffffffffffffffffffffffff1673ffffffffffffffffffffffffffffffffffffffff16815260200190815260200160002080549050905090565b6002805461043590611624565b80601f016020809104026020016040519081016040528092919081815260200182805461046190611624565b80156104ae5780601f10610483576101008083540402835291602001916104ae565b820191906000526020600020905b81548152906001019060200180831161049157829003601f168201915b505050505081565b60608060006104c36103de565b90508067ffffffffffffffff811115610505577f4e487b7100000000000000000000000000000000000000000000000000000000600052604160045260246000fd5b6040519080825280602002602001820160405280156105335781602001602082028036833780820191505090505b5092508067ffffffffffffffff811115610576577f4e487b7100000000000000000000000000000000000000000000000000000000600052604160045260246000fd5b6040519080825280602002602001820160405280156105a45781602001602082028036833780820191505090505b50915060005b818110156106e3576000600160003373ffffffffffffffffffffffffffffffffffffffff1673ffffffffffffffffffffffffffffffffffffffff168152602001908152602001600020828154811061062b577f4e487b7100000000000000000000000000000000000000000000000000000000600052603260045260246000fd5b906000526020600020906002020190508060000154858381518110610679577f4e487b7100000000000000000000000000000000000000000000000000000000600052603260045260246000fd5b60200260200101818152505080600101548483815181106106c3577f4e487b7100000000000000000000000000000000000000000000000000000000600052603260045260246000fd5b6020026020010181815250505080806106db90611656565b9150506105aa565b50509091565b6106f1610e7d565b73ffffffffffffffffffffffffffffffffffffffff1661070f610bac565b73ffffffffffffffffffffffffffffffffffffffff1614610765576040517f08c379a000000000000000000000000000000000000000000000000000000000815260040161075c906114a8565b60405180910390fd5b80600660006101000a81548173ffffffffffffffffffffffffffffffffffffffff021916908373ffffffffffffffffffffffffffffffffffffffff16021790555050565b60085481565b600660009054906101000a900473ffffffffffffffffffffffffffffffffffffffff1681565b6107dd610e7d565b73ffffffffffffffffffffffffffffffffffffffff166107fb610bac565b73ffffffffffffffffffffffffffffffffffffffff1614610851576040517f08c379a0000000000000000000000000000000000000000000000000000000008152600401610848906114a8565b60405180910390fd5b6000479050600660009054906101000a900473ffffffffffffffffffffffffffffffffffffffff1673ffffffffffffffffffffffffffffffffffffffff166108fc829081150290604051600060405180830381858888f193505050501580156108be573d6000803e3d6000fd5b507f5b6b431d4476a211bb7d41c20d1aab9ae2321deee0d20be3d9fc9b1093fa6e3d816040516108ee91906114c8565b60405180910390a150565b6004805461090690611624565b80601f016020809104026020016040519081016040528092919081815260200182805461093290611624565b801561097f5780601f106109545761010080835404028352916020019161097f565b820191906000526020600020905b81548152906001019060200180831161096257829003601f168201915b505050505081565b61098f610e7d565b73ffffffffffffffffffffffffffffffffffffffff166109ad610bac565b73ffffffffffffffffffffffffffffffffffffffff1614610a03576040517f08c379a00000000000000000000000000000000000000000000000000000000081526004016109fa906114a8565b60405180910390fd5b878760029190610a14929190610f49565b50858560039190610a26929190610f49565b50838360049190610a38929190610f49565b50818160059190610a4a929190610f49565b507fab7b858a76f7f410a859fcd42382d57f243f86330875a685d74d96f60a6337f96002600360046005604051610a849493929190611427565b60405180910390a15050505050505050565b610a9e610e7d565b73ffffffffffffffffffffffffffffffffffffffff16610abc610bac565b73ffffffffffffffffffffffffffffffffffffffff1614610b12576040517f08c379a0000000000000000000000000000000000000000000000000000000008152600401610b09906114a8565b60405180910390fd5b610b1c6000610e85565b565b60038054610b2b90611624565b80601f0160208091040260200160405190810160405280929190818152602001828054610b5790611624565b8015610ba45780601f10610b7957610100808354040283529160200191610ba4565b820191906000526020600020905b815481529060010190602001808311610b8757829003601f168201915b505050505081565b60008060009054906101000a900473ffffffffffffffffffffffffffffffffffffffff16905090565b60058054610be290611624565b80601f0160208091040260200160405190810160405280929190818152602001828054610c0e90611624565b8015610c5b5780601f10610c3057610100808354040283529160200191610c5b565b820191906000526020600020905b815481529060010190602001808311610c3e57829003601f168201915b505050505081565b60075481565b60006040518060400160405280348152602001428152509050600160003373ffffffffffffffffffffffffffffffffffffffff1673ffffffffffffffffffffffffffffffffffffffff16815260200190815260200160002081908060018154018082558091505060019003906000526020600020906002020160009091909190915060008201518160000155602082015181600101555050610d16346007546103c890919063ffffffff16565b60078190555060086000815480929190610d2f90611656565b91905055503373ffffffffffffffffffffffffffffffffffffffff167f264f630d9efa0d07053a31163641d9fcc0adafc9d9e76f1c37c2ce3a558d2c5234604051610d7a91906114c8565b60405180910390a250565b610d8d610e7d565b73ffffffffffffffffffffffffffffffffffffffff16610dab610bac565b73ffffffffffffffffffffffffffffffffffffffff1614610e01576040517f08c379a0000000000000000000000000000000000000000000000000000000008152600401610df8906114a8565b60405180910390fd5b600073ffffffffffffffffffffffffffffffffffffffff168173ffffffffffffffffffffffffffffffffffffffff161415610e71576040517f08c379a0000000000000000000000000000000000000000000000000000000008152600401610e6890611488565b60405180910390fd5b610e7a81610e85565b50565b600033905090565b60008060009054906101000a900473ffffffffffffffffffffffffffffffffffffffff169050816000806101000a81548173ffffffffffffffffffffffffffffffffffffffff021916908373ffffffffffffffffffffffffffffffffffffffff1602179055508173ffffffffffffffffffffffffffffffffffffffff168173ffffffffffffffffffffffffffffffffffffffff167f8be0079c531659141344cd1fd0a4f28419497f9722a3daafe3b4186f6b6457e060405160405180910390a35050565b828054610f5590611624565b90600052602060002090601f016020900481019282610f775760008555610fbe565b82601f10610f9057803560ff1916838001178555610fbe565b82800160010185558215610fbe579182015b82811115610fbd578235825591602001919060010190610fa2565b5b509050610fcb9190610fcf565b5090565b5b80821115610fe8576000816000905550600101610fd0565b5090565b600081359050610ffb8161170e565b92915050565b60008135905061101081611725565b92915050565b60008083601f84011261102857600080fd5b8235905067ffffffffffffffff81111561104157600080fd5b60208301915083600182028301111561105957600080fd5b9250929050565b60006020828403121561107257600080fd5b600061108084828501610fec565b91505092915050565b60006020828403121561109b57600080fd5b60006110a984828501611001565b91505092915050565b6000806000806000806000806080898b0312156110ce57600080fd5b600089013567ffffffffffffffff8111156110e857600080fd5b6110f48b828c01611016565b9850985050602089013567ffffffffffffffff81111561111357600080fd5b61111f8b828c01611016565b9650965050604089013567ffffffffffffffff81111561113e57600080fd5b61114a8b828c01611016565b9450945050606089013567ffffffffffffffff81111561116957600080fd5b6111758b828c01611016565b92509250509295985092959890939650565b6000611193838361137a565b60208301905092915050565b6111a8816115b5565b82525050565b6111b7816115a3565b82525050565b60006111c882611508565b6111d2818561152b565b93506111dd836114e3565b8060005b8381101561120e5781516111f58882611187565b97506112008361151e565b9250506001810190506111e1565b5085935050505092915050565b600061122682611513565b611230818561153c565b93506112408185602086016115f1565b611249816116fd565b840191505092915050565b6000815461126181611624565b61126b818661153c565b945060018216600081146112865760018114611298576112cb565b60ff19831686526020860193506112cb565b6112a1856114f3565b60005b838110156112c3578154818901526001820191506020810190506112a4565b808801955050505b50505092915050565b60006112e160268361153c565b91507f4f776e61626c653a206e6577206f776e657220697320746865207a65726f206160008301527f64647265737300000000000000000000000000000000000000000000000000006020830152604082019050919050565b600061134760208361153c565b91507f4f776e61626c653a2063616c6c6572206973206e6f7420746865206f776e65726000830152602082019050919050565b611383816115e7565b82525050565b611392816115e7565b82525050565b60006020820190506113ad60008301846111ae565b92915050565b60006020820190506113c8600083018461119f565b92915050565b600060408201905081810360008301526113e881856111bd565b905081810360208301526113fc81846111bd565b90509392505050565b6000602082019050818103600083015261141f818461121b565b905092915050565b600060808201905081810360008301526114418187611254565b905081810360208301526114558186611254565b905081810360408301526114698185611254565b9050818103606083015261147d8184611254565b905095945050505050565b600060208201905081810360008301526114a1816112d4565b9050919050565b600060208201905081810360008301526114c18161133a565b9050919050565b60006020820190506114dd6000830184611389565b92915050565b6000819050602082019050919050565b60008190508160005260206000209050919050565b600081519050919050565b600081519050919050565b6000602082019050919050565b600082825260208201905092915050565b600082825260208201905092915050565b6000611558826115e7565b9150611563836115e7565b9250827fffffffffffffffffffffffffffffffffffffffffffffffffffffffffffffffff038211156115985761159761169f565b5b828201905092915050565b60006115ae826115c7565b9050919050565b60006115c0826115c7565b9050919050565b600073ffffffffffffffffffffffffffffffffffffffff82169050919050565b6000819050919050565b60005b8381101561160f5780820151818401526020810190506115f4565b8381111561161e576000848401525b50505050565b6000600282049050600182168061163c57607f821691505b602082108114156116505761164f6116ce565b5b50919050565b6000611661826115e7565b91507fffffffffffffffffffffffffffffffffffffffffffffffffffffffffffffffff8214156116945761169361169f565b5b600182019050919050565b7f4e487b7100000000000000000000000000000000000000000000000000000000600052601160045260246000fd5b7f4e487b7100000000000000000000000000000000000000000000000000000000600052602260045260246000fd5b6000601f19601f8301169050919050565b611717816115a3565b811461172257600080fd5b50565b61172e816115b5565b811461173957600080fd5b5056fea2646970667358221220bac9c52b3ad08efd84838ae3daac57a782c28b64ffa1a9eb8ccc61a98e45ebc764736f6c63430008000033a2646970667358221220aecc1666d532bc829c292bd54299ae4bd78d8f6a4b5d3e0b845196c994d9fc7564736f6c63430008000033",
  "immutableReferences": {},
  "source": "// SPDX-License-Identifier: MIT\npragma solidity >=0.4.21 <0.9.0;\n\nimport \"./Fundraiser.sol\";\n\ncontract Factory {\n    // most items that can be returned from fundraisers function\n    uint256 constant maxLimit = 20;\n\n    Fundraiser[] private _fundraisers;\n\n    event FundraiserCreated(\n        Fundraiser indexed fundraiser,\n        address indexed owner\n    );\n\n    function fundraisersCount() public view returns (uint256) {\n        return _fundraisers.length;\n    }\n\n    function createFundraiser(\n        string memory name,\n        string memory description,\n        string memory url,\n        string memory imageURL,\n        address payable beneficiary\n    ) public {\n        Fundraiser fundraiser = new Fundraiser(\n            name,\n            description,\n            url,\n            imageURL,\n            beneficiary,\n            msg.sender\n        );\n        _fundraisers.push(fundraiser);\n        emit FundraiserCreated(fundraiser, msg.sender);\n    }\n\n    function fundraisers(uint256 limit, uint256 offset)\n        public\n        view\n        returns (Fundraiser[] memory coll)\n    {\n        require(offset <= fundraisersCount(), \"offset out of bounds\");\n        // start our size as difference between total count and offset\n        uint256 size = fundraisersCount() - offset;\n        // size should be the smaller of the count or the limit\n        size = size < limit ? size : limit;\n        // size should not exceed the maxLimit\n        size = size < maxLimit ? size : maxLimit;\n        // build our collection to return based off of limit and offest\n        coll = new Fundraiser[](size);\n        for (uint256 i = 0; i < size; i++) {\n            coll[i] = _fundraisers[offset + i];\n        }\n        return coll;\n    }\n}\n",
  "sourcePath": "C:\\Users\\Diky Wiraguna\\Desktop\\aplikasi-donasi\\contracts\\Factory.sol",
  "compiler": {
    "name": "solc",
    "version": "0.8.0+commit.c7dfd78e.Emscripten.clang"
  },
  "schemaVersion": "3.4.10",
  "updatedAt": "2022-11-26T04:55:56.789Z",
  "networkType": "ethereum",
  "devdoc": {
    "kind": "dev",
    "methods": {},
    "version": 1
  },
  "userdoc": {
    "kind": "user",
    "methods": {},
    "version": 1
  }
}